{
  "contractName": "TokenSwap",
  "abi": [
    {
      "inputs": [
        {
          "internalType": "address",
          "name": "_token1",
          "type": "address"
        },
        {
          "internalType": "address",
          "name": "_owner1",
          "type": "address"
        },
        {
          "internalType": "uint256",
          "name": "_amount1",
          "type": "uint256"
        },
        {
          "internalType": "address",
          "name": "_token2",
          "type": "address"
        },
        {
          "internalType": "address",
          "name": "_owner2",
          "type": "address"
        },
        {
          "internalType": "uint256",
          "name": "_amount2",
          "type": "uint256"
        }
      ],
      "stateMutability": "nonpayable",
      "type": "constructor"
    },
    {
      "inputs": [],
      "name": "amount1",
      "outputs": [
        {
          "internalType": "uint256",
          "name": "",
          "type": "uint256"
        }
      ],
      "stateMutability": "view",
      "type": "function",
      "constant": true
    },
    {
      "inputs": [],
      "name": "amount2",
      "outputs": [
        {
          "internalType": "uint256",
          "name": "",
          "type": "uint256"
        }
      ],
      "stateMutability": "view",
      "type": "function",
      "constant": true
    },
    {
      "inputs": [],
      "name": "owner1",
      "outputs": [
        {
          "internalType": "address",
          "name": "",
          "type": "address"
        }
      ],
      "stateMutability": "view",
      "type": "function",
      "constant": true
    },
    {
      "inputs": [],
      "name": "owner2",
      "outputs": [
        {
          "internalType": "address",
          "name": "",
          "type": "address"
        }
      ],
      "stateMutability": "view",
      "type": "function",
      "constant": true
    },
    {
      "inputs": [],
      "name": "token1",
      "outputs": [
        {
          "internalType": "contract IERC20",
          "name": "",
          "type": "address"
        }
      ],
      "stateMutability": "view",
      "type": "function",
      "constant": true
    },
    {
      "inputs": [],
      "name": "token2",
      "outputs": [
        {
          "internalType": "contract IERC20",
          "name": "",
          "type": "address"
        }
      ],
      "stateMutability": "view",
      "type": "function",
      "constant": true
    },
    {
      "inputs": [],
      "name": "swap",
      "outputs": [],
      "stateMutability": "nonpayable",
      "type": "function"
    }
  ],
  "bytecode": "0x608060405234801562000010575f80fd5b5060405162000cf238038062000cf28339818101604052810190620000369190620001ec565b855f806101000a81548173ffffffffffffffffffffffffffffffffffffffff021916908373ffffffffffffffffffffffffffffffffffffffff1602179055508460015f6101000a81548173ffffffffffffffffffffffffffffffffffffffff021916908373ffffffffffffffffffffffffffffffffffffffff160217905550836002819055508260035f6101000a81548173ffffffffffffffffffffffffffffffffffffffff021916908373ffffffffffffffffffffffffffffffffffffffff1602179055508160045f6101000a81548173ffffffffffffffffffffffffffffffffffffffff021916908373ffffffffffffffffffffffffffffffffffffffff1602179055508060058190555050505050505062000284565b5f80fd5b5f73ffffffffffffffffffffffffffffffffffffffff82169050919050565b5f6200017e8262000153565b9050919050565b620001908162000172565b81146200019b575f80fd5b50565b5f81519050620001ae8162000185565b92915050565b5f819050919050565b620001c881620001b4565b8114620001d3575f80fd5b50565b5f81519050620001e681620001bd565b92915050565b5f805f805f8060c087890312156200020957620002086200014f565b5b5f6200021889828a016200019e565b96505060206200022b89828a016200019e565b95505060406200023e89828a01620001d6565b94505060606200025189828a016200019e565b93505060806200026489828a016200019e565b92505060a06200027789828a01620001d6565b9150509295509295509295565b610a6080620002925f395ff3fe608060405234801561000f575f80fd5b506004361061007b575f3560e01c8063736889141161005957806373688914146100d95780638119c065146100f7578063d21220a714610101578063f400fde41461011f5761007b565b8063057bfcc71461007f57806325be124e1461009d57806352709725146100bb575b5f80fd5b61008761013d565b6040516100949190610680565b60405180910390f35b6100a5610143565b6040516100b29190610713565b60405180910390f35b6100c3610168565b6040516100d0919061074c565b60405180910390f35b6100e161018d565b6040516100ee919061074c565b60405180910390f35b6100ff6101b2565b005b610109610578565b6040516101169190610713565b60405180910390f35b61012761059b565b6040516101349190610680565b60405180910390f35b60055481565b60035f9054906101000a900473ffffffffffffffffffffffffffffffffffffffff1681565b60045f9054906101000a900473ffffffffffffffffffffffffffffffffffffffff1681565b60015f9054906101000a900473ffffffffffffffffffffffffffffffffffffffff1681565b60015f9054906101000a900473ffffffffffffffffffffffffffffffffffffffff1673ffffffffffffffffffffffffffffffffffffffff163373ffffffffffffffffffffffffffffffffffffffff161480610259575060045f9054906101000a900473ffffffffffffffffffffffffffffffffffffffff1673ffffffffffffffffffffffffffffffffffffffff163373ffffffffffffffffffffffffffffffffffffffff16145b610298576040517f08c379a000000000000000000000000000000000000000000000000000000000815260040161028f906107bf565b60405180910390fd5b6002545f8054906101000a900473ffffffffffffffffffffffffffffffffffffffff1673ffffffffffffffffffffffffffffffffffffffff1663dd62ed3e60015f9054906101000a900473ffffffffffffffffffffffffffffffffffffffff16306040518363ffffffff1660e01b81526004016103169291906107dd565b602060405180830381865afa158015610331573d5f803e3d5ffd5b505050506040513d601f19601f820116820180604052508101906103559190610832565b1015610396576040517f08c379a000000000000000000000000000000000000000000000000000000000815260040161038d906108a7565b60405180910390fd5b60055460035f9054906101000a900473ffffffffffffffffffffffffffffffffffffffff1673ffffffffffffffffffffffffffffffffffffffff1663dd62ed3e60045f9054906101000a900473ffffffffffffffffffffffffffffffffffffffff16306040518363ffffffff1660e01b81526004016104169291906107dd565b602060405180830381865afa158015610431573d5f803e3d5ffd5b505050506040513d601f19601f820116820180604052508101906104559190610832565b1015610496576040517f08c379a000000000000000000000000000000000000000000000000000000000815260040161048d9061090f565b60405180910390fd5b6105055f8054906101000a900473ffffffffffffffffffffffffffffffffffffffff1660015f9054906101000a900473ffffffffffffffffffffffffffffffffffffffff1660045f9054906101000a900473ffffffffffffffffffffffffffffffffffffffff166002546105a1565b61057660035f9054906101000a900473ffffffffffffffffffffffffffffffffffffffff1660045f9054906101000a900473ffffffffffffffffffffffffffffffffffffffff1660015f9054906101000a900473ffffffffffffffffffffffffffffffffffffffff166005546105a1565b565b5f8054906101000a900473ffffffffffffffffffffffffffffffffffffffff1681565b60025481565b5f8473ffffffffffffffffffffffffffffffffffffffff166323b872dd8585856040518463ffffffff1660e01b81526004016105df9392919061092d565b6020604051808303815f875af11580156105fb573d5f803e3d5ffd5b505050506040513d601f19601f8201168201806040525081019061061f9190610997565b905080610661576040517f08c379a000000000000000000000000000000000000000000000000000000000815260040161065890610a0c565b60405180910390fd5b5050505050565b5f819050919050565b61067a81610668565b82525050565b5f6020820190506106935f830184610671565b92915050565b5f73ffffffffffffffffffffffffffffffffffffffff82169050919050565b5f819050919050565b5f6106db6106d66106d184610699565b6106b8565b610699565b9050919050565b5f6106ec826106c1565b9050919050565b5f6106fd826106e2565b9050919050565b61070d816106f3565b82525050565b5f6020820190506107265f830184610704565b92915050565b5f61073682610699565b9050919050565b6107468161072c565b82525050565b5f60208201905061075f5f83018461073d565b92915050565b5f82825260208201905092915050565b7f4e6f7420617574686f72697a65640000000000000000000000000000000000005f82015250565b5f6107a9600e83610765565b91506107b482610775565b602082019050919050565b5f6020820190508181035f8301526107d68161079d565b9050919050565b5f6040820190506107f05f83018561073d565b6107fd602083018461073d565b9392505050565b5f80fd5b61081181610668565b811461081b575f80fd5b50565b5f8151905061082c81610808565b92915050565b5f6020828403121561084757610846610804565b5b5f6108548482850161081e565b91505092915050565b7f546f6b656e203120616c6c6f77616e636520746f6f206c6f77000000000000005f82015250565b5f610891601983610765565b915061089c8261085d565b602082019050919050565b5f6020820190508181035f8301526108be81610885565b9050919050565b7f546f6b656e203220616c6c6f77616e636520746f6f206c6f77000000000000005f82015250565b5f6108f9601983610765565b9150610904826108c5565b602082019050919050565b5f6020820190508181035f830152610926816108ed565b9050919050565b5f6060820190506109405f83018661073d565b61094d602083018561073d565b61095a6040830184610671565b949350505050565b5f8115159050919050565b61097681610962565b8114610980575f80fd5b50565b5f815190506109918161096d565b92915050565b5f602082840312156109ac576109ab610804565b5b5f6109b984828501610983565b91505092915050565b7f546f6b656e207472616e73666572206661696c656400000000000000000000005f82015250565b5f6109f6601583610765565b9150610a01826109c2565b602082019050919050565b5f6020820190508181035f830152610a23816109ea565b905091905056fea2646970667358221220797f69fb74bedfe7f144a6df68bec52b7ad1f6ab14847966f341c7000fc93c5f64736f6c63430008150033",
  "immutableReferences": {},
  "source": "// SPDX-License-Identifier: MIT\r\npragma solidity ^0.8.20;\r\n\r\nimport \"@openzeppelin/contracts/token/ERC20/IERC20.sol\";\r\n\r\n/*\r\nHow to swap tokens\r\n\r\n1. Person A has 100 tokens from Token A, which is a ERC20 token.\r\n2. Person B has 100 tokens from Token B, which is also a ERC20 token.\r\n3. Person A and Person B wants to trade 10 Token A for 20 Token B.\r\n4. Person A or Person B deploys TokenSwap\r\n5. Person A approves TokenSwap to withdraw 10 tokens from Token A\r\n6. Person B approves TokenSwap to withdraw 20 tokens from Token B\r\n7. Person A or Person B calls TokenSwap.swap()\r\n8. Person A and Person B traded tokens successfully.\r\n*/\r\n\r\ncontract TokenSwap {\r\n    IERC20 public token1;\r\n    address public owner1;\r\n    uint public amount1;\r\n    IERC20 public token2;\r\n    address public owner2;\r\n    uint public amount2;\r\n\r\n    constructor(\r\n        address _token1,\r\n        address _owner1,\r\n        uint _amount1,\r\n        address _token2,\r\n        address _owner2,\r\n        uint _amount2\r\n    ) {\r\n        token1 = IERC20(_token1);\r\n        owner1 = _owner1;\r\n        amount1 = _amount1;\r\n        token2 = IERC20(_token2);\r\n        owner2 = _owner2;\r\n        amount2 = _amount2;\r\n    }\r\n\r\n    function swap() public {\r\n        require(msg.sender == owner1 || msg.sender == owner2, \"Not authorized\");\r\n        require(\r\n            token1.allowance(owner1, address(this)) >= amount1,\r\n            \"Token 1 allowance too low\"\r\n        );\r\n        require(\r\n            token2.allowance(owner2, address(this)) >= amount2,\r\n            \"Token 2 allowance too low\"\r\n        );\r\n\r\n        _safeTransferFrom(token1, owner1, owner2, amount1);\r\n        _safeTransferFrom(token2, owner2, owner1, amount2);\r\n    }\r\n\r\n    function _safeTransferFrom(\r\n        IERC20 token,\r\n        address sender,\r\n        address recipient,\r\n        uint amount\r\n    ) private {\r\n        bool sent = token.transferFrom(sender, recipient, amount);\r\n        require(sent, \"Token transfer failed\");\r\n    }\r\n}\r\n",
  "sourcePath": "C:\\Users\\Vivek\\Documents\\LY Project\\Honours Project\\Token Swapping\\contracts\\TokenSwap.sol",
  "compiler": {
    "name": "solc",
    "version": "0.8.21+commit.d9974bed.Emscripten.clang"
  },
  "schemaVersion": "3.4.16",
  "updatedAt": "2024-02-28T20:49:11.537Z",
  "networkType": "ethereum",
  "devdoc": {
    "kind": "dev",
    "methods": {},
    "version": 1
  },
  "userdoc": {
    "kind": "user",
    "methods": {},
    "version": 1
  }
}