{
  "contractName": "Token1",
  "abi": [
    {
      "inputs": [
        {
          "internalType": "address",
          "name": "initialOwner",
          "type": "address"
        }
      ],
      "stateMutability": "nonpayable",
      "type": "constructor"
    },
    {
      "inputs": [],
      "name": "ECDSAInvalidSignature",
      "type": "error"
    },
    {
      "inputs": [
        {
          "internalType": "uint256",
          "name": "length",
          "type": "uint256"
        }
      ],
      "name": "ECDSAInvalidSignatureLength",
      "type": "error"
    },
    {
      "inputs": [
        {
          "internalType": "bytes32",
          "name": "s",
          "type": "bytes32"
        }
      ],
      "name": "ECDSAInvalidSignatureS",
      "type": "error"
    },
    {
      "inputs": [
        {
          "internalType": "address",
          "name": "spender",
          "type": "address"
        },
        {
          "internalType": "uint256",
          "name": "allowance",
          "type": "uint256"
        },
        {
          "internalType": "uint256",
          "name": "needed",
          "type": "uint256"
        }
      ],
      "name": "ERC20InsufficientAllowance",
      "type": "error"
    },
    {
      "inputs": [
        {
          "internalType": "address",
          "name": "sender",
          "type": "address"
        },
        {
          "internalType": "uint256",
          "name": "balance",
          "type": "uint256"
        },
        {
          "internalType": "uint256",
          "name": "needed",
          "type": "uint256"
        }
      ],
      "name": "ERC20InsufficientBalance",
      "type": "error"
    },
    {
      "inputs": [
        {
          "internalType": "address",
          "name": "approver",
          "type": "address"
        }
      ],
      "name": "ERC20InvalidApprover",
      "type": "error"
    },
    {
      "inputs": [
        {
          "internalType": "address",
          "name": "receiver",
          "type": "address"
        }
      ],
      "name": "ERC20InvalidReceiver",
      "type": "error"
    },
    {
      "inputs": [
        {
          "internalType": "address",
          "name": "sender",
          "type": "address"
        }
      ],
      "name": "ERC20InvalidSender",
      "type": "error"
    },
    {
      "inputs": [
        {
          "internalType": "address",
          "name": "spender",
          "type": "address"
        }
      ],
      "name": "ERC20InvalidSpender",
      "type": "error"
    },
    {
      "inputs": [
        {
          "internalType": "uint256",
          "name": "deadline",
          "type": "uint256"
        }
      ],
      "name": "ERC2612ExpiredSignature",
      "type": "error"
    },
    {
      "inputs": [
        {
          "internalType": "address",
          "name": "signer",
          "type": "address"
        },
        {
          "internalType": "address",
          "name": "owner",
          "type": "address"
        }
      ],
      "name": "ERC2612InvalidSigner",
      "type": "error"
    },
    {
      "inputs": [
        {
          "internalType": "address",
          "name": "account",
          "type": "address"
        },
        {
          "internalType": "uint256",
          "name": "currentNonce",
          "type": "uint256"
        }
      ],
      "name": "InvalidAccountNonce",
      "type": "error"
    },
    {
      "inputs": [],
      "name": "InvalidShortString",
      "type": "error"
    },
    {
      "inputs": [
        {
          "internalType": "address",
          "name": "owner",
          "type": "address"
        }
      ],
      "name": "OwnableInvalidOwner",
      "type": "error"
    },
    {
      "inputs": [
        {
          "internalType": "address",
          "name": "account",
          "type": "address"
        }
      ],
      "name": "OwnableUnauthorizedAccount",
      "type": "error"
    },
    {
      "inputs": [
        {
          "internalType": "string",
          "name": "str",
          "type": "string"
        }
      ],
      "name": "StringTooLong",
      "type": "error"
    },
    {
      "anonymous": false,
      "inputs": [
        {
          "indexed": true,
          "internalType": "address",
          "name": "owner",
          "type": "address"
        },
        {
          "indexed": true,
          "internalType": "address",
          "name": "spender",
          "type": "address"
        },
        {
          "indexed": false,
          "internalType": "uint256",
          "name": "value",
          "type": "uint256"
        }
      ],
      "name": "Approval",
      "type": "event"
    },
    {
      "anonymous": false,
      "inputs": [],
      "name": "EIP712DomainChanged",
      "type": "event"
    },
    {
      "anonymous": false,
      "inputs": [
        {
          "indexed": true,
          "internalType": "address",
          "name": "previousOwner",
          "type": "address"
        },
        {
          "indexed": true,
          "internalType": "address",
          "name": "newOwner",
          "type": "address"
        }
      ],
      "name": "OwnershipTransferred",
      "type": "event"
    },
    {
      "anonymous": false,
      "inputs": [
        {
          "indexed": true,
          "internalType": "address",
          "name": "from",
          "type": "address"
        },
        {
          "indexed": true,
          "internalType": "address",
          "name": "to",
          "type": "address"
        },
        {
          "indexed": false,
          "internalType": "uint256",
          "name": "value",
          "type": "uint256"
        }
      ],
      "name": "Transfer",
      "type": "event"
    },
    {
      "inputs": [],
      "name": "DOMAIN_SEPARATOR",
      "outputs": [
        {
          "internalType": "bytes32",
          "name": "",
          "type": "bytes32"
        }
      ],
      "stateMutability": "view",
      "type": "function",
      "constant": true
    },
    {
      "inputs": [
        {
          "internalType": "address",
          "name": "owner",
          "type": "address"
        },
        {
          "internalType": "address",
          "name": "spender",
          "type": "address"
        }
      ],
      "name": "allowance",
      "outputs": [
        {
          "internalType": "uint256",
          "name": "",
          "type": "uint256"
        }
      ],
      "stateMutability": "view",
      "type": "function",
      "constant": true
    },
    {
      "inputs": [
        {
          "internalType": "address",
          "name": "spender",
          "type": "address"
        },
        {
          "internalType": "uint256",
          "name": "value",
          "type": "uint256"
        }
      ],
      "name": "approve",
      "outputs": [
        {
          "internalType": "bool",
          "name": "",
          "type": "bool"
        }
      ],
      "stateMutability": "nonpayable",
      "type": "function"
    },
    {
      "inputs": [
        {
          "internalType": "address",
          "name": "account",
          "type": "address"
        }
      ],
      "name": "balanceOf",
      "outputs": [
        {
          "internalType": "uint256",
          "name": "",
          "type": "uint256"
        }
      ],
      "stateMutability": "view",
      "type": "function",
      "constant": true
    },
    {
      "inputs": [],
      "name": "decimals",
      "outputs": [
        {
          "internalType": "uint8",
          "name": "",
          "type": "uint8"
        }
      ],
      "stateMutability": "view",
      "type": "function",
      "constant": true
    },
    {
      "inputs": [],
      "name": "eip712Domain",
      "outputs": [
        {
          "internalType": "bytes1",
          "name": "fields",
          "type": "bytes1"
        },
        {
          "internalType": "string",
          "name": "name",
          "type": "string"
        },
        {
          "internalType": "string",
          "name": "version",
          "type": "string"
        },
        {
          "internalType": "uint256",
          "name": "chainId",
          "type": "uint256"
        },
        {
          "internalType": "address",
          "name": "verifyingContract",
          "type": "address"
        },
        {
          "internalType": "bytes32",
          "name": "salt",
          "type": "bytes32"
        },
        {
          "internalType": "uint256[]",
          "name": "extensions",
          "type": "uint256[]"
        }
      ],
      "stateMutability": "view",
      "type": "function",
      "constant": true
    },
    {
      "inputs": [],
      "name": "name",
      "outputs": [
        {
          "internalType": "string",
          "name": "",
          "type": "string"
        }
      ],
      "stateMutability": "view",
      "type": "function",
      "constant": true
    },
    {
      "inputs": [
        {
          "internalType": "address",
          "name": "owner",
          "type": "address"
        }
      ],
      "name": "nonces",
      "outputs": [
        {
          "internalType": "uint256",
          "name": "",
          "type": "uint256"
        }
      ],
      "stateMutability": "view",
      "type": "function",
      "constant": true
    },
    {
      "inputs": [],
      "name": "owner",
      "outputs": [
        {
          "internalType": "address",
          "name": "",
          "type": "address"
        }
      ],
      "stateMutability": "view",
      "type": "function",
      "constant": true
    },
    {
      "inputs": [
        {
          "internalType": "address",
          "name": "owner",
          "type": "address"
        },
        {
          "internalType": "address",
          "name": "spender",
          "type": "address"
        },
        {
          "internalType": "uint256",
          "name": "value",
          "type": "uint256"
        },
        {
          "internalType": "uint256",
          "name": "deadline",
          "type": "uint256"
        },
        {
          "internalType": "uint8",
          "name": "v",
          "type": "uint8"
        },
        {
          "internalType": "bytes32",
          "name": "r",
          "type": "bytes32"
        },
        {
          "internalType": "bytes32",
          "name": "s",
          "type": "bytes32"
        }
      ],
      "name": "permit",
      "outputs": [],
      "stateMutability": "nonpayable",
      "type": "function"
    },
    {
      "inputs": [],
      "name": "renounceOwnership",
      "outputs": [],
      "stateMutability": "nonpayable",
      "type": "function"
    },
    {
      "inputs": [],
      "name": "symbol",
      "outputs": [
        {
          "internalType": "string",
          "name": "",
          "type": "string"
        }
      ],
      "stateMutability": "view",
      "type": "function",
      "constant": true
    },
    {
      "inputs": [],
      "name": "totalSupply",
      "outputs": [
        {
          "internalType": "uint256",
          "name": "",
          "type": "uint256"
        }
      ],
      "stateMutability": "view",
      "type": "function",
      "constant": true
    },
    {
      "inputs": [
        {
          "internalType": "address",
          "name": "to",
          "type": "address"
        },
        {
          "internalType": "uint256",
          "name": "value",
          "type": "uint256"
        }
      ],
      "name": "transfer",
      "outputs": [
        {
          "internalType": "bool",
          "name": "",
          "type": "bool"
        }
      ],
      "stateMutability": "nonpayable",
      "type": "function"
    },
    {
      "inputs": [
        {
          "internalType": "address",
          "name": "from",
          "type": "address"
        },
        {
          "internalType": "address",
          "name": "to",
          "type": "address"
        },
        {
          "internalType": "uint256",
          "name": "value",
          "type": "uint256"
        }
      ],
      "name": "transferFrom",
      "outputs": [
        {
          "internalType": "bool",
          "name": "",
          "type": "bool"
        }
      ],
      "stateMutability": "nonpayable",
      "type": "function"
    },
    {
      "inputs": [
        {
          "internalType": "address",
          "name": "newOwner",
          "type": "address"
        }
      ],
      "name": "transferOwnership",
      "outputs": [],
      "stateMutability": "nonpayable",
      "type": "function"
    }
  ],
  "bytecode": "0x61016060405234801562000011575f80fd5b5060405162002e1838038062002e188339818101604052810190620000379190620007b3565b806040518060400160405280600581526020017f48656c6c6f000000000000000000000000000000000000000000000000000000815250806040518060400160405280600181526020017f31000000000000000000000000000000000000000000000000000000000000008152506040518060400160405280600581526020017f48656c6c6f0000000000000000000000000000000000000000000000000000008152506040518060400160405280600181526020017f4800000000000000000000000000000000000000000000000000000000000000815250816003908162000122919062000a47565b50806004908162000134919062000a47565b5050506200014d600583620002b160201b90919060201c565b61012081815250506200016b600682620002b160201b90919060201c565b6101408181525050818051906020012060e08181525050808051906020012061010081815250504660a08181525050620001aa6200030660201b60201c565b608081815250503073ffffffffffffffffffffffffffffffffffffffff1660c08173ffffffffffffffffffffffffffffffffffffffff16815250505050505f73ffffffffffffffffffffffffffffffffffffffff168173ffffffffffffffffffffffffffffffffffffffff16036200025b575f6040517f1e4fbdf700000000000000000000000000000000000000000000000000000000815260040162000252919062000b3c565b60405180910390fd5b6200026c816200036260201b60201c565b50620002aa33620002826200042560201b60201c565b600a62000290919062000ce0565b60646200029e919062000d30565b6200042d60201b60201c565b5062000fda565b5f602083511015620002d657620002ce83620004b760201b60201c565b905062000300565b82620002e8836200052160201b60201c565b5f019081620002f8919062000a47565b5060ff5f1b90505b92915050565b5f7f8b73c3c69bb8fe3d512ecc4cf759cc79239f7b179b0ffacaa9a75d522b39400f60e0516101005146306040516020016200034795949392919062000da5565b60405160208183030381529060405280519060200120905090565b5f60085f9054906101000a900473ffffffffffffffffffffffffffffffffffffffff1690508160085f6101000a81548173ffffffffffffffffffffffffffffffffffffffff021916908373ffffffffffffffffffffffffffffffffffffffff1602179055508173ffffffffffffffffffffffffffffffffffffffff168173ffffffffffffffffffffffffffffffffffffffff167f8be0079c531659141344cd1fd0a4f28419497f9722a3daafe3b4186f6b6457e060405160405180910390a35050565b5f6012905090565b5f73ffffffffffffffffffffffffffffffffffffffff168273ffffffffffffffffffffffffffffffffffffffff1603620004a0575f6040517fec442f0500000000000000000000000000000000000000000000000000000000815260040162000497919062000b3c565b60405180910390fd5b620004b35f83836200052a60201b60201c565b5050565b5f80829050601f815111156200050657826040517f305a27a9000000000000000000000000000000000000000000000000000000008152600401620004fd919062000e8a565b60405180910390fd5b805181620005149062000edb565b5f1c175f1b915050919050565b5f819050919050565b5f73ffffffffffffffffffffffffffffffffffffffff168373ffffffffffffffffffffffffffffffffffffffff16036200057e578060025f82825462000571919062000f4a565b925050819055506200064f565b5f805f8573ffffffffffffffffffffffffffffffffffffffff1673ffffffffffffffffffffffffffffffffffffffff1681526020019081526020015f20549050818110156200060a578381836040517fe450d38c000000000000000000000000000000000000000000000000000000008152600401620006019392919062000f84565b60405180910390fd5b8181035f808673ffffffffffffffffffffffffffffffffffffffff1673ffffffffffffffffffffffffffffffffffffffff1681526020019081526020015f2081905550505b5f73ffffffffffffffffffffffffffffffffffffffff168273ffffffffffffffffffffffffffffffffffffffff160362000698578060025f8282540392505081905550620006e2565b805f808473ffffffffffffffffffffffffffffffffffffffff1673ffffffffffffffffffffffffffffffffffffffff1681526020019081526020015f205f82825401925050819055505b8173ffffffffffffffffffffffffffffffffffffffff168373ffffffffffffffffffffffffffffffffffffffff167fddf252ad1be2c89b69c2b068fc378daa952ba7f163c4a11628f55a4df523b3ef8360405162000741919062000fbf565b60405180910390a3505050565b5f80fd5b5f73ffffffffffffffffffffffffffffffffffffffff82169050919050565b5f6200077d8262000752565b9050919050565b6200078f8162000771565b81146200079a575f80fd5b50565b5f81519050620007ad8162000784565b92915050565b5f60208284031215620007cb57620007ca6200074e565b5b5f620007da848285016200079d565b91505092915050565b5f81519050919050565b7f4e487b71000000000000000000000000000000000000000000000000000000005f52604160045260245ffd5b7f4e487b71000000000000000000000000000000000000000000000000000000005f52602260045260245ffd5b5f60028204905060018216806200085f57607f821691505b6020821081036200087557620008746200081a565b5b50919050565b5f819050815f5260205f209050919050565b5f6020601f8301049050919050565b5f82821b905092915050565b5f60088302620008d97fffffffffffffffffffffffffffffffffffffffffffffffffffffffffffffffff826200089c565b620008e586836200089c565b95508019841693508086168417925050509392505050565b5f819050919050565b5f819050919050565b5f6200092f620009296200092384620008fd565b62000906565b620008fd565b9050919050565b5f819050919050565b6200094a836200090f565b62000962620009598262000936565b848454620008a8565b825550505050565b5f90565b620009786200096a565b620009858184846200093f565b505050565b5b81811015620009ac57620009a05f826200096e565b6001810190506200098b565b5050565b601f821115620009fb57620009c5816200087b565b620009d0846200088d565b81016020851015620009e0578190505b620009f8620009ef856200088d565b8301826200098a565b50505b505050565b5f82821c905092915050565b5f62000a1d5f198460080262000a00565b1980831691505092915050565b5f62000a37838362000a0c565b9150826002028217905092915050565b62000a5282620007e3565b67ffffffffffffffff81111562000a6e5762000a6d620007ed565b5b62000a7a825462000847565b62000a87828285620009b0565b5f60209050601f83116001811462000abd575f841562000aa8578287015190505b62000ab4858262000a2a565b86555062000b23565b601f19841662000acd866200087b565b5f5b8281101562000af65784890151825560018201915060208501945060208101905062000acf565b8683101562000b16578489015162000b12601f89168262000a0c565b8355505b6001600288020188555050505b505050505050565b62000b368162000771565b82525050565b5f60208201905062000b515f83018462000b2b565b92915050565b7f4e487b71000000000000000000000000000000000000000000000000000000005f52601160045260245ffd5b5f8160011c9050919050565b5f808291508390505b600185111562000be15780860481111562000bb95762000bb862000b57565b5b600185161562000bc95780820291505b808102905062000bd98562000b84565b945062000b99565b94509492505050565b5f8262000bfb576001905062000ccd565b8162000c0a575f905062000ccd565b816001811462000c23576002811462000c2e5762000c64565b600191505062000ccd565b60ff84111562000c435762000c4262000b57565b5b8360020a91508482111562000c5d5762000c5c62000b57565b5b5062000ccd565b5060208310610133831016604e8410600b841016171562000c9e5782820a90508381111562000c985762000c9762000b57565b5b62000ccd565b62000cad848484600162000b90565b9250905081840481111562000cc75762000cc662000b57565b5b81810290505b9392505050565b5f60ff82169050919050565b5f62000cec82620008fd565b915062000cf98362000cd4565b925062000d287fffffffffffffffffffffffffffffffffffffffffffffffffffffffffffffffff848462000bea565b905092915050565b5f62000d3c82620008fd565b915062000d4983620008fd565b925082820262000d5981620008fd565b9150828204841483151762000d735762000d7262000b57565b5b5092915050565b5f819050919050565b62000d8e8162000d7a565b82525050565b62000d9f81620008fd565b82525050565b5f60a08201905062000dba5f83018862000d83565b62000dc9602083018762000d83565b62000dd8604083018662000d83565b62000de7606083018562000d94565b62000df6608083018462000b2b565b9695505050505050565b5f82825260208201905092915050565b5f5b8381101562000e2f57808201518184015260208101905062000e12565b5f8484015250505050565b5f601f19601f8301169050919050565b5f62000e5682620007e3565b62000e62818562000e00565b935062000e7481856020860162000e10565b62000e7f8162000e3a565b840191505092915050565b5f6020820190508181035f83015262000ea4818462000e4a565b905092915050565b5f81519050919050565b5f819050602082019050919050565b5f62000ed2825162000d7a565b80915050919050565b5f62000ee78262000eac565b8262000ef38462000eb6565b905062000f008162000ec5565b9250602082101562000f435762000f3e7fffffffffffffffffffffffffffffffffffffffffffffffffffffffffffffffff836020036008026200089c565b831692505b5050919050565b5f62000f5682620008fd565b915062000f6383620008fd565b925082820190508082111562000f7e5762000f7d62000b57565b5b92915050565b5f60608201905062000f995f83018662000b2b565b62000fa8602083018562000d94565b62000fb7604083018462000d94565b949350505050565b5f60208201905062000fd45f83018462000d94565b92915050565b60805160a05160c05160e051610100516101205161014051611dec6200102c5f395f610c9301525f610c5801525f61118c01525f61116b01525f610a0c01525f610a6201525f610a8b0152611dec5ff3fe608060405234801561000f575f80fd5b50600436106100fe575f3560e01c80637ecebe0011610095578063a9059cbb11610064578063a9059cbb146102a4578063d505accf146102d4578063dd62ed3e146102f0578063f2fde38b14610320576100fe565b80637ecebe001461021457806384b0196e146102445780638da5cb5b1461026857806395d89b4114610286576100fe565b8063313ce567116100d1578063313ce5671461019e5780633644e515146101bc57806370a08231146101da578063715018a61461020a576100fe565b806306fdde0314610102578063095ea7b31461012057806318160ddd1461015057806323b872dd1461016e575b5f80fd5b61010a61033c565b604051610117919061165c565b60405180910390f35b61013a6004803603810190610135919061170d565b6103cc565b6040516101479190611765565b60405180910390f35b6101586103ee565b604051610165919061178d565b60405180910390f35b610188600480360381019061018391906117a6565b6103f7565b6040516101959190611765565b60405180910390f35b6101a6610425565b6040516101b39190611811565b60405180910390f35b6101c461042d565b6040516101d19190611842565b60405180910390f35b6101f460048036038101906101ef919061185b565b61043b565b604051610201919061178d565b60405180910390f35b610212610480565b005b61022e6004803603810190610229919061185b565b610493565b60405161023b919061178d565b60405180910390f35b61024c6104a4565b60405161025f9796959493929190611986565b60405180910390f35b610270610549565b60405161027d9190611a08565b60405180910390f35b61028e610571565b60405161029b919061165c565b60405180910390f35b6102be60048036038101906102b9919061170d565b610601565b6040516102cb9190611765565b60405180910390f35b6102ee60048036038101906102e99190611a75565b610623565b005b61030a60048036038101906103059190611b12565b610768565b604051610317919061178d565b60405180910390f35b61033a6004803603810190610335919061185b565b6107ea565b005b60606003805461034b90611b7d565b80601f016020809104026020016040519081016040528092919081815260200182805461037790611b7d565b80156103c25780601f10610399576101008083540402835291602001916103c2565b820191905f5260205f20905b8154815290600101906020018083116103a557829003601f168201915b5050505050905090565b5f806103d661086e565b90506103e3818585610875565b600191505092915050565b5f600254905090565b5f8061040161086e565b905061040e858285610887565b610419858585610919565b60019150509392505050565b5f6012905090565b5f610436610a09565b905090565b5f805f8373ffffffffffffffffffffffffffffffffffffffff1673ffffffffffffffffffffffffffffffffffffffff1681526020019081526020015f20549050919050565b610488610abf565b6104915f610b46565b565b5f61049d82610c09565b9050919050565b5f6060805f805f60606104b5610c4f565b6104bd610c8a565b46305f801b5f67ffffffffffffffff8111156104dc576104db611bad565b5b60405190808252806020026020018201604052801561050a5781602001602082028036833780820191505090505b507f0f00000000000000000000000000000000000000000000000000000000000000959493929190965096509650965096509650965090919293949596565b5f60085f9054906101000a900473ffffffffffffffffffffffffffffffffffffffff16905090565b60606004805461058090611b7d565b80601f01602080910402602001604051908101604052809291908181526020018280546105ac90611b7d565b80156105f75780601f106105ce576101008083540402835291602001916105f7565b820191905f5260205f20905b8154815290600101906020018083116105da57829003601f168201915b5050505050905090565b5f8061060b61086e565b9050610618818585610919565b600191505092915050565b8342111561066857836040517f6279130200000000000000000000000000000000000000000000000000000000815260040161065f919061178d565b60405180910390fd5b5f7f6e71edae12b1b97f4d1f60370fef10105fa2faae0126114a169c64845d6126c98888886106968c610cc5565b896040516020016106ac96959493929190611bda565b6040516020818303038152906040528051906020012090505f6106ce82610d18565b90505f6106dd82878787610d31565b90508973ffffffffffffffffffffffffffffffffffffffff168173ffffffffffffffffffffffffffffffffffffffff161461075157808a6040517f4b800e46000000000000000000000000000000000000000000000000000000008152600401610748929190611c39565b60405180910390fd5b61075c8a8a8a610875565b50505050505050505050565b5f60015f8473ffffffffffffffffffffffffffffffffffffffff1673ffffffffffffffffffffffffffffffffffffffff1681526020019081526020015f205f8373ffffffffffffffffffffffffffffffffffffffff1673ffffffffffffffffffffffffffffffffffffffff1681526020019081526020015f2054905092915050565b6107f2610abf565b5f73ffffffffffffffffffffffffffffffffffffffff168173ffffffffffffffffffffffffffffffffffffffff1603610862575f6040517f1e4fbdf70000000000000000000000000000000000000000000000000000000081526004016108599190611a08565b60405180910390fd5b61086b81610b46565b50565b5f33905090565b6108828383836001610d5f565b505050565b5f6108928484610768565b90507fffffffffffffffffffffffffffffffffffffffffffffffffffffffffffffffff81146109135781811015610904578281836040517ffb8f41b20000000000000000000000000000000000000000000000000000000081526004016108fb93929190611c60565b60405180910390fd5b61091284848484035f610d5f565b5b50505050565b5f73ffffffffffffffffffffffffffffffffffffffff168373ffffffffffffffffffffffffffffffffffffffff1603610989575f6040517f96c6fd1e0000000000000000000000000000000000000000000000000000000081526004016109809190611a08565b60405180910390fd5b5f73ffffffffffffffffffffffffffffffffffffffff168273ffffffffffffffffffffffffffffffffffffffff16036109f9575f6040517fec442f050000000000000000000000000000000000000000000000000000000081526004016109f09190611a08565b60405180910390fd5b610a04838383610f2e565b505050565b5f7f000000000000000000000000000000000000000000000000000000000000000073ffffffffffffffffffffffffffffffffffffffff163073ffffffffffffffffffffffffffffffffffffffff16148015610a8457507f000000000000000000000000000000000000000000000000000000000000000046145b15610ab1577f00000000000000000000000000000000000000000000000000000000000000009050610abc565b610ab9611147565b90505b90565b610ac761086e565b73ffffffffffffffffffffffffffffffffffffffff16610ae5610549565b73ffffffffffffffffffffffffffffffffffffffff1614610b4457610b0861086e565b6040517f118cdaa7000000000000000000000000000000000000000000000000000000008152600401610b3b9190611a08565b60405180910390fd5b565b5f60085f9054906101000a900473ffffffffffffffffffffffffffffffffffffffff1690508160085f6101000a81548173ffffffffffffffffffffffffffffffffffffffff021916908373ffffffffffffffffffffffffffffffffffffffff1602179055508173ffffffffffffffffffffffffffffffffffffffff168173ffffffffffffffffffffffffffffffffffffffff167f8be0079c531659141344cd1fd0a4f28419497f9722a3daafe3b4186f6b6457e060405160405180910390a35050565b5f60075f8373ffffffffffffffffffffffffffffffffffffffff1673ffffffffffffffffffffffffffffffffffffffff1681526020019081526020015f20549050919050565b6060610c8560057f00000000000000000000000000000000000000000000000000000000000000006111dc90919063ffffffff16565b905090565b6060610cc060067f00000000000000000000000000000000000000000000000000000000000000006111dc90919063ffffffff16565b905090565b5f60075f8373ffffffffffffffffffffffffffffffffffffffff1673ffffffffffffffffffffffffffffffffffffffff1681526020019081526020015f205f815480929190600101919050559050919050565b5f610d2a610d24610a09565b83611289565b9050919050565b5f805f80610d41888888886112c9565b925092509250610d5182826113b0565b829350505050949350505050565b5f73ffffffffffffffffffffffffffffffffffffffff168473ffffffffffffffffffffffffffffffffffffffff1603610dcf575f6040517fe602df05000000000000000000000000000000000000000000000000000000008152600401610dc69190611a08565b60405180910390fd5b5f73ffffffffffffffffffffffffffffffffffffffff168373ffffffffffffffffffffffffffffffffffffffff1603610e3f575f6040517f94280d62000000000000000000000000000000000000000000000000000000008152600401610e369190611a08565b60405180910390fd5b8160015f8673ffffffffffffffffffffffffffffffffffffffff1673ffffffffffffffffffffffffffffffffffffffff1681526020019081526020015f205f8573ffffffffffffffffffffffffffffffffffffffff1673ffffffffffffffffffffffffffffffffffffffff1681526020019081526020015f20819055508015610f28578273ffffffffffffffffffffffffffffffffffffffff168473ffffffffffffffffffffffffffffffffffffffff167f8c5be1e5ebec7d5bd14f71427d1e84f3dd0314c0f7b2291e5b200ac8c7c3b92584604051610f1f919061178d565b60405180910390a35b50505050565b5f73ffffffffffffffffffffffffffffffffffffffff168373ffffffffffffffffffffffffffffffffffffffff1603610f7e578060025f828254610f729190611cc2565b9250508190555061104c565b5f805f8573ffffffffffffffffffffffffffffffffffffffff1673ffffffffffffffffffffffffffffffffffffffff1681526020019081526020015f2054905081811015611007578381836040517fe450d38c000000000000000000000000000000000000000000000000000000008152600401610ffe93929190611c60565b60405180910390fd5b8181035f808673ffffffffffffffffffffffffffffffffffffffff1673ffffffffffffffffffffffffffffffffffffffff1681526020019081526020015f2081905550505b5f73ffffffffffffffffffffffffffffffffffffffff168273ffffffffffffffffffffffffffffffffffffffff1603611093578060025f82825403925050819055506110dd565b805f808473ffffffffffffffffffffffffffffffffffffffff1673ffffffffffffffffffffffffffffffffffffffff1681526020019081526020015f205f82825401925050819055505b8173ffffffffffffffffffffffffffffffffffffffff168373ffffffffffffffffffffffffffffffffffffffff167fddf252ad1be2c89b69c2b068fc378daa952ba7f163c4a11628f55a4df523b3ef8360405161113a919061178d565b60405180910390a3505050565b5f7f8b73c3c69bb8fe3d512ecc4cf759cc79239f7b179b0ffacaa9a75d522b39400f7f00000000000000000000000000000000000000000000000000000000000000007f000000000000000000000000000000000000000000000000000000000000000046306040516020016111c1959493929190611cf5565b60405160208183030381529060405280519060200120905090565b606060ff5f1b83146111f8576111f183611512565b9050611283565b81805461120490611b7d565b80601f016020809104026020016040519081016040528092919081815260200182805461123090611b7d565b801561127b5780601f106112525761010080835404028352916020019161127b565b820191905f5260205f20905b81548152906001019060200180831161125e57829003601f168201915b505050505090505b92915050565b5f6040517f190100000000000000000000000000000000000000000000000000000000000081528360028201528260228201526042812091505092915050565b5f805f7f7fffffffffffffffffffffffffffffff5d576e7357a4501ddfe92f46681b20a0845f1c1115611305575f6003859250925092506113a6565b5f6001888888886040515f81526020016040526040516113289493929190611d46565b6020604051602081039080840390855afa158015611348573d5f803e3d5ffd5b5050506020604051035190505f73ffffffffffffffffffffffffffffffffffffffff168173ffffffffffffffffffffffffffffffffffffffff1603611399575f60015f801b935093509350506113a6565b805f805f1b935093509350505b9450945094915050565b5f60038111156113c3576113c2611d89565b5b8260038111156113d6576113d5611d89565b5b031561150e57600160038111156113f0576113ef611d89565b5b82600381111561140357611402611d89565b5b0361143a576040517ff645eedf00000000000000000000000000000000000000000000000000000000815260040160405180910390fd5b6002600381111561144e5761144d611d89565b5b82600381111561146157611460611d89565b5b036114a557805f1c6040517ffce698f700000000000000000000000000000000000000000000000000000000815260040161149c919061178d565b60405180910390fd5b6003808111156114b8576114b7611d89565b5b8260038111156114cb576114ca611d89565b5b0361150d57806040517fd78bce0c0000000000000000000000000000000000000000000000000000000081526004016115049190611842565b60405180910390fd5b5b5050565b60605f61151e83611584565b90505f602067ffffffffffffffff81111561153c5761153b611bad565b5b6040519080825280601f01601f19166020018201604052801561156e5781602001600182028036833780820191505090505b5090508181528360208201528092505050919050565b5f8060ff835f1c169050601f8111156115c9576040517fb3512b0c00000000000000000000000000000000000000000000000000000000815260040160405180910390fd5b80915050919050565b5f81519050919050565b5f82825260208201905092915050565b5f5b838110156116095780820151818401526020810190506115ee565b5f8484015250505050565b5f601f19601f8301169050919050565b5f61162e826115d2565b61163881856115dc565b93506116488185602086016115ec565b61165181611614565b840191505092915050565b5f6020820190508181035f8301526116748184611624565b905092915050565b5f80fd5b5f73ffffffffffffffffffffffffffffffffffffffff82169050919050565b5f6116a982611680565b9050919050565b6116b98161169f565b81146116c3575f80fd5b50565b5f813590506116d4816116b0565b92915050565b5f819050919050565b6116ec816116da565b81146116f6575f80fd5b50565b5f81359050611707816116e3565b92915050565b5f80604083850312156117235761172261167c565b5b5f611730858286016116c6565b9250506020611741858286016116f9565b9150509250929050565b5f8115159050919050565b61175f8161174b565b82525050565b5f6020820190506117785f830184611756565b92915050565b611787816116da565b82525050565b5f6020820190506117a05f83018461177e565b92915050565b5f805f606084860312156117bd576117bc61167c565b5b5f6117ca868287016116c6565b93505060206117db868287016116c6565b92505060406117ec868287016116f9565b9150509250925092565b5f60ff82169050919050565b61180b816117f6565b82525050565b5f6020820190506118245f830184611802565b92915050565b5f819050919050565b61183c8161182a565b82525050565b5f6020820190506118555f830184611833565b92915050565b5f602082840312156118705761186f61167c565b5b5f61187d848285016116c6565b91505092915050565b5f7fff0000000000000000000000000000000000000000000000000000000000000082169050919050565b6118ba81611886565b82525050565b6118c98161169f565b82525050565b5f81519050919050565b5f82825260208201905092915050565b5f819050602082019050919050565b611901816116da565b82525050565b5f61191283836118f8565b60208301905092915050565b5f602082019050919050565b5f611934826118cf565b61193e81856118d9565b9350611949836118e9565b805f5b838110156119795781516119608882611907565b975061196b8361191e565b92505060018101905061194c565b5085935050505092915050565b5f60e0820190506119995f83018a6118b1565b81810360208301526119ab8189611624565b905081810360408301526119bf8188611624565b90506119ce606083018761177e565b6119db60808301866118c0565b6119e860a0830185611833565b81810360c08301526119fa818461192a565b905098975050505050505050565b5f602082019050611a1b5f8301846118c0565b92915050565b611a2a816117f6565b8114611a34575f80fd5b50565b5f81359050611a4581611a21565b92915050565b611a548161182a565b8114611a5e575f80fd5b50565b5f81359050611a6f81611a4b565b92915050565b5f805f805f805f60e0888a031215611a9057611a8f61167c565b5b5f611a9d8a828b016116c6565b9750506020611aae8a828b016116c6565b9650506040611abf8a828b016116f9565b9550506060611ad08a828b016116f9565b9450506080611ae18a828b01611a37565b93505060a0611af28a828b01611a61565b92505060c0611b038a828b01611a61565b91505092959891949750929550565b5f8060408385031215611b2857611b2761167c565b5b5f611b35858286016116c6565b9250506020611b46858286016116c6565b9150509250929050565b7f4e487b71000000000000000000000000000000000000000000000000000000005f52602260045260245ffd5b5f6002820490506001821680611b9457607f821691505b602082108103611ba757611ba6611b50565b5b50919050565b7f4e487b71000000000000000000000000000000000000000000000000000000005f52604160045260245ffd5b5f60c082019050611bed5f830189611833565b611bfa60208301886118c0565b611c0760408301876118c0565b611c14606083018661177e565b611c21608083018561177e565b611c2e60a083018461177e565b979650505050505050565b5f604082019050611c4c5f8301856118c0565b611c5960208301846118c0565b9392505050565b5f606082019050611c735f8301866118c0565b611c80602083018561177e565b611c8d604083018461177e565b949350505050565b7f4e487b71000000000000000000000000000000000000000000000000000000005f52601160045260245ffd5b5f611ccc826116da565b9150611cd7836116da565b9250828201905080821115611cef57611cee611c95565b5b92915050565b5f60a082019050611d085f830188611833565b611d156020830187611833565b611d226040830186611833565b611d2f606083018561177e565b611d3c60808301846118c0565b9695505050505050565b5f608082019050611d595f830187611833565b611d666020830186611802565b611d736040830185611833565b611d806060830184611833565b95945050505050565b7f4e487b71000000000000000000000000000000000000000000000000000000005f52602160045260245ffdfea264697066735822122080fd116a016b722e06b61aa4df6b692805ce6b925549491e088f08233cb7565764736f6c63430008150033",
  "immutableReferences": {
    "2167": [
      {
        "length": 32,
        "start": 2699
      }
    ],
    "2169": [
      {
        "length": 32,
        "start": 2658
      }
    ],
    "2171": [
      {
        "length": 32,
        "start": 2572
      }
    ],
    "2173": [
      {
        "length": 32,
        "start": 4459
      }
    ],
    "2175": [
      {
        "length": 32,
        "start": 4492
      }
    ],
    "2178": [
      {
        "length": 32,
        "start": 3160
      }
    ],
    "2181": [
      {
        "length": 32,
        "start": 3219
      }
    ]
  },
  "source": "// SPDX-License-Identifier: MIT\r\n// Compatible with OpenZeppelin Contracts ^5.0.0\r\npragma solidity ^0.8.20;\r\n\r\nimport \"@openzeppelin/contracts/token/ERC20/ERC20.sol\";\r\nimport \"@openzeppelin/contracts/token/ERC20/extensions/ERC20Permit.sol\";\r\nimport \"@openzeppelin/contracts/access/Ownable.sol\";\r\n\r\ncontract Token1 is ERC20, ERC20Permit, Ownable {\r\n    constructor(address initialOwner)\r\n        ERC20(\"Hello\", \"H\")\r\n        ERC20Permit(\"Hello\")\r\n        Ownable(initialOwner)\r\n    {\r\n        _mint(msg.sender, 100 * 10 ** decimals());\r\n    }\r\n}",
  "sourcePath": "C:\\Users\\Vivek\\Documents\\LY Project\\Honours Project\\Token Swapping\\contracts\\Token1.sol",
  "compiler": {
    "name": "solc",
    "version": "0.8.21+commit.d9974bed.Emscripten.clang"
  },
  "schemaVersion": "3.4.16",
  "updatedAt": "2024-02-28T20:49:11.545Z",
  "networkType": "ethereum",
  "devdoc": {
    "errors": {
      "ECDSAInvalidSignature()": [
        {
          "details": "The signature derives the `address(0)`."
        }
      ],
      "ECDSAInvalidSignatureLength(uint256)": [
        {
          "details": "The signature has an invalid length."
        }
      ],
      "ECDSAInvalidSignatureS(bytes32)": [
        {
          "details": "The signature has an S value that is in the upper half order."
        }
      ],
      "ERC20InsufficientAllowance(address,uint256,uint256)": [
        {
          "details": "Indicates a failure with the `spender`s `allowance`. Used in transfers.",
          "params": {
            "allowance": "Amount of tokens a `spender` is allowed to operate with.",
            "needed": "Minimum amount required to perform a transfer.",
            "spender": "Address that may be allowed to operate on tokens without being their owner."
          }
        }
      ],
      "ERC20InsufficientBalance(address,uint256,uint256)": [
        {
          "details": "Indicates an error related to the current `balance` of a `sender`. Used in transfers.",
          "params": {
            "balance": "Current balance for the interacting account.",
            "needed": "Minimum amount required to perform a transfer.",
            "sender": "Address whose tokens are being transferred."
          }
        }
      ],
      "ERC20InvalidApprover(address)": [
        {
          "details": "Indicates a failure with the `approver` of a token to be approved. Used in approvals.",
          "params": {
            "approver": "Address initiating an approval operation."
          }
        }
      ],
      "ERC20InvalidReceiver(address)": [
        {
          "details": "Indicates a failure with the token `receiver`. Used in transfers.",
          "params": {
            "receiver": "Address to which tokens are being transferred."
          }
        }
      ],
      "ERC20InvalidSender(address)": [
        {
          "details": "Indicates a failure with the token `sender`. Used in transfers.",
          "params": {
            "sender": "Address whose tokens are being transferred."
          }
        }
      ],
      "ERC20InvalidSpender(address)": [
        {
          "details": "Indicates a failure with the `spender` to be approved. Used in approvals.",
          "params": {
            "spender": "Address that may be allowed to operate on tokens without being their owner."
          }
        }
      ],
      "ERC2612ExpiredSignature(uint256)": [
        {
          "details": "Permit deadline has expired."
        }
      ],
      "ERC2612InvalidSigner(address,address)": [
        {
          "details": "Mismatched signature."
        }
      ],
      "InvalidAccountNonce(address,uint256)": [
        {
          "details": "The nonce used for an `account` is not the expected current nonce."
        }
      ],
      "OwnableInvalidOwner(address)": [
        {
          "details": "The owner is not a valid owner account. (eg. `address(0)`)"
        }
      ],
      "OwnableUnauthorizedAccount(address)": [
        {
          "details": "The caller account is not authorized to perform an operation."
        }
      ]
    },
    "events": {
      "Approval(address,address,uint256)": {
        "details": "Emitted when the allowance of a `spender` for an `owner` is set by a call to {approve}. `value` is the new allowance."
      },
      "EIP712DomainChanged()": {
        "details": "MAY be emitted to signal that the domain could have changed."
      },
      "Transfer(address,address,uint256)": {
        "details": "Emitted when `value` tokens are moved from one account (`from`) to another (`to`). Note that `value` may be zero."
      }
    },
    "kind": "dev",
    "methods": {
      "DOMAIN_SEPARATOR()": {
        "details": "Returns the domain separator used in the encoding of the signature for {permit}, as defined by {EIP712}."
      },
      "allowance(address,address)": {
        "details": "See {IERC20-allowance}."
      },
      "approve(address,uint256)": {
        "details": "See {IERC20-approve}. NOTE: If `value` is the maximum `uint256`, the allowance is not updated on `transferFrom`. This is semantically equivalent to an infinite approval. Requirements: - `spender` cannot be the zero address."
      },
      "balanceOf(address)": {
        "details": "See {IERC20-balanceOf}."
      },
      "decimals()": {
        "details": "Returns the number of decimals used to get its user representation. For example, if `decimals` equals `2`, a balance of `505` tokens should be displayed to a user as `5.05` (`505 / 10 ** 2`). Tokens usually opt for a value of 18, imitating the relationship between Ether and Wei. This is the default value returned by this function, unless it's overridden. NOTE: This information is only used for _display_ purposes: it in no way affects any of the arithmetic of the contract, including {IERC20-balanceOf} and {IERC20-transfer}."
      },
      "eip712Domain()": {
        "details": "See {IERC-5267}."
      },
      "name()": {
        "details": "Returns the name of the token."
      },
      "nonces(address)": {
        "details": "Returns the current nonce for `owner`. This value must be included whenever a signature is generated for {permit}. Every successful call to {permit} increases ``owner``'s nonce by one. This prevents a signature from being used multiple times."
      },
      "owner()": {
        "details": "Returns the address of the current owner."
      },
      "permit(address,address,uint256,uint256,uint8,bytes32,bytes32)": {
        "details": "Sets `value` as the allowance of `spender` over ``owner``'s tokens, given ``owner``'s signed approval. IMPORTANT: The same issues {IERC20-approve} has related to transaction ordering also apply here. Emits an {Approval} event. Requirements: - `spender` cannot be the zero address. - `deadline` must be a timestamp in the future. - `v`, `r` and `s` must be a valid `secp256k1` signature from `owner` over the EIP712-formatted function arguments. - the signature must use ``owner``'s current nonce (see {nonces}). For more information on the signature format, see the https://eips.ethereum.org/EIPS/eip-2612#specification[relevant EIP section]. CAUTION: See Security Considerations above."
      },
      "renounceOwnership()": {
        "details": "Leaves the contract without owner. It will not be possible to call `onlyOwner` functions. Can only be called by the current owner. NOTE: Renouncing ownership will leave the contract without an owner, thereby disabling any functionality that is only available to the owner."
      },
      "symbol()": {
        "details": "Returns the symbol of the token, usually a shorter version of the name."
      },
      "totalSupply()": {
        "details": "See {IERC20-totalSupply}."
      },
      "transfer(address,uint256)": {
        "details": "See {IERC20-transfer}. Requirements: - `to` cannot be the zero address. - the caller must have a balance of at least `value`."
      },
      "transferFrom(address,address,uint256)": {
        "details": "See {IERC20-transferFrom}. Emits an {Approval} event indicating the updated allowance. This is not required by the EIP. See the note at the beginning of {ERC20}. NOTE: Does not update the allowance if the current allowance is the maximum `uint256`. Requirements: - `from` and `to` cannot be the zero address. - `from` must have a balance of at least `value`. - the caller must have allowance for ``from``'s tokens of at least `value`."
      },
      "transferOwnership(address)": {
        "details": "Transfers ownership of the contract to a new account (`newOwner`). Can only be called by the current owner."
      }
    },
    "version": 1
  },
  "userdoc": {
    "kind": "user",
    "methods": {},
    "version": 1
  }
}